{"contracts/LuckyNumber.sol":{"LuckyNumber":{"abi":[{"anonymous":false,"inputs":[{"indexed":true,"internalType":"address","name":"player","type":"address"},{"indexed":false,"internalType":"uint256","name":"guess","type":"uint256"},{"indexed":false,"internalType":"uint256","name":"luckyNumber","type":"uint256"},{"indexed":false,"internalType":"bool","name":"won","type":"bool"},{"indexed":false,"internalType":"uint256","name":"pointsEarned","type":"uint256"},{"indexed":false,"internalType":"uint256","name":"newBalance","type":"uint256"}],"name":"Played","type":"event"},{"inputs":[],"name":"COOLDOWN","outputs":[{"internalType":"uint256","name":"","type":"uint256"}],"stateMutability":"view","type":"function"},{"inputs":[{"internalType":"address","name":"","type":"address"}],"name":"gameCoinBalance","outputs":[{"internalType":"uint256","name":"","type":"uint256"}],"stateMutability":"view","type":"function"},{"inputs":[{"internalType":"address","name":"player","type":"address"}],"name":"getStatus","outputs":[{"internalType":"uint256","name":"coin","type":"uint256"},{"internalType":"uint256","name":"points","type":"uint256"},{"internalType":"uint256","name":"nextRefillTime","type":"uint256"}],"stateMutability":"view","type":"function"},{"inputs":[{"internalType":"address","name":"","type":"address"}],"name":"lastRefillTime","outputs":[{"internalType":"uint256","name":"","type":"uint256"}],"stateMutability":"view","type":"function"},{"inputs":[{"internalType":"uint256","name":"guess","type":"uint256"}],"name":"play","outputs":[],"stateMutability":"nonpayable","type":"function"},{"inputs":[{"internalType":"address","name":"","type":"address"}],"name":"userPoints","outputs":[{"internalType":"uint256","name":"","type":"uint256"}],"stateMutability":"view","type":"function"}],"evm":{"bytecode":{"linkReferences":{},"object":"608060405234801561001057600080fd5b50610ab6806100206000396000f3fe608060405234801561001057600080fd5b50600436106100625760003560e01c806330ccebb5146100675780634aba9dfb146100995780636898f82b146100c9578063a2724a4d146100e5578063a9ab257b14610103578063f50ddbc714610133575b600080fd5b610081600480360381019061007c919061069b565b610163565b604051610090939291906106e1565b60405180910390f35b6100b360048036038101906100ae919061069b565b610246565b6040516100c09190610718565b60405180910390f35b6100e360048036038101906100de919061075f565b61025e565b005b6100ed610602565b6040516100fa9190610718565b60405180910390f35b61011d6004803603810190610118919061069b565b610608565b60405161012a9190610718565b60405180910390f35b61014d6004803603810190610148919061069b565b610620565b60405161015a9190610718565b60405180910390f35b600080600080610e10600260008773ffffffffffffffffffffffffffffffffffffffff1673ffffffffffffffffffffffffffffffffffffffff168152602001908152602001600020546101b691906107bb565b90506000808673ffffffffffffffffffffffffffffffffffffffff1673ffffffffffffffffffffffffffffffffffffffff16815260200190815260200160002054600160008773ffffffffffffffffffffffffffffffffffffffff1673ffffffffffffffffffffffffffffffffffffffff1681526020019081526020016000205482935093509350509193909250565b60026020528060005260406000206000915090505481565b60018110158015610270575060038111155b6102af576040517f08c379a00000000000000000000000000000000000000000000000000000000081526004016102a69061084c565b60405180910390fd5b60036000803373ffffffffffffffffffffffffffffffffffffffff1673ffffffffffffffffffffffffffffffffffffffff1681526020019081526020016000205410156103d357610e10600260003373ffffffffffffffffffffffffffffffffffffffff1673ffffffffffffffffffffffffffffffffffffffff1681526020019081526020016000205461034391906107bb565b42106103d257600a6000803373ffffffffffffffffffffffffffffffffffffffff1673ffffffffffffffffffffffffffffffffffffffff1681526020019081526020016000208190555042600260003373ffffffffffffffffffffffffffffffffffffffff1673ffffffffffffffffffffffffffffffffffffffff168152602001908152602001600020819055505b5b60036000803373ffffffffffffffffffffffffffffffffffffffff1673ffffffffffffffffffffffffffffffffffffffff168152602001908152602001600020541015610455576040517f08c379a000000000000000000000000000000000000000000000000000000000815260040161044c906108b8565b60405180910390fd5b60036000803373ffffffffffffffffffffffffffffffffffffffff1673ffffffffffffffffffffffffffffffffffffffff16815260200190815260200160002060008282546104a491906108d8565b925050819055506000600160034233446040516020016104c693929190610975565b6040516020818303038152906040528051906020012060001c6104e991906109e1565b6104f391906107bb565b90506000818314905060008161050a57600161050d565b60055b60ff16905080600160003373ffffffffffffffffffffffffffffffffffffffff1673ffffffffffffffffffffffffffffffffffffffff168152602001908152602001600020600082825461056191906107bb565b925050819055503373ffffffffffffffffffffffffffffffffffffffff167ff8f101b2cc184b2676e6aa82d8b732d54684df1634d209202a8c0adffb1afa6f858585856000803373ffffffffffffffffffffffffffffffffffffffff1673ffffffffffffffffffffffffffffffffffffffff168152602001908152602001600020546040516105f4959493929190610a2d565b60405180910390a250505050565b610e1081565b60006020528060005260406000206000915090505481565b60016020528060005260406000206000915090505481565b600080fd5b600073ffffffffffffffffffffffffffffffffffffffff82169050919050565b60006106688261063d565b9050919050565b6106788161065d565b811461068357600080fd5b50565b6000813590506106958161066f565b92915050565b6000602082840312156106b1576106b0610638565b5b60006106bf84828501610686565b91505092915050565b6000819050919050565b6106db816106c8565b82525050565b60006060820190506106f660008301866106d2565b61070360208301856106d2565b61071060408301846106d2565b949350505050565b600060208201905061072d60008301846106d2565b92915050565b61073c816106c8565b811461074757600080fd5b50565b60008135905061075981610733565b92915050565b60006020828403121561077557610774610638565b5b60006107838482850161074a565b91505092915050565b7f4e487b7100000000000000000000000000000000000000000000000000000000600052601160045260246000fd5b60006107c6826106c8565b91506107d1836106c8565b92508282019050808211156107e9576107e861078c565b5b92915050565b600082825260208201905092915050565b7f4775657373206d75737420626520312d33000000000000000000000000000000600082015250565b60006108366011836107ef565b915061084182610800565b602082019050919050565b6000602082019050818103600083015261086581610829565b9050919050565b7f496e73756666696369656e742047616d65436f696e0000000000000000000000600082015250565b60006108a26015836107ef565b91506108ad8261086c565b602082019050919050565b600060208201905081810360008301526108d181610895565b9050919050565b60006108e3826106c8565b91506108ee836106c8565b92508282039050818111156109065761090561078c565b5b92915050565b6000819050919050565b610927610922826106c8565b61090c565b82525050565b60008160601b9050919050565b60006109458261092d565b9050919050565b60006109578261093a565b9050919050565b61096f61096a8261065d565b61094c565b82525050565b60006109818286610916565b602082019150610991828561095e565b6014820191506109a18284610916565b602082019150819050949350505050565b7f4e487b7100000000000000000000000000000000000000000000000000000000600052601260045260246000fd5b60006109ec826106c8565b91506109f7836106c8565b925082610a0757610a066109b2565b5b828206905092915050565b60008115159050919050565b610a2781610a12565b82525050565b600060a082019050610a4260008301886106d2565b610a4f60208301876106d2565b610a5c6040830186610a1e565b610a6960608301856106d2565b610a7660808301846106d2565b969550505050505056fea264697066735822122041299af877401f00410cfa29483e2345c77df588d2e4a415e118033a7e9814ba64736f6c63430008180033","opcodes":"PUSH1 0x80 PUSH1 0x40 MSTORE CALLVALUE DUP1 ISZERO PUSH2 0x10 JUMPI PUSH1 0x0 DUP1 REVERT JUMPDEST POP PUSH2 0xAB6 DUP1 PUSH2 0x20 PUSH1 0x0 CODECOPY PUSH1 0x0 RETURN INVALID PUSH1 0x80 PUSH1 0x40 MSTORE CALLVALUE DUP1 ISZERO PUSH2 0x10 JUMPI PUSH1 0x0 DUP1 REVERT JUMPDEST POP PUSH1 0x4 CALLDATASIZE LT PUSH2 0x62 JUMPI PUSH1 0x0 CALLDATALOAD PUSH1 0xE0 SHR DUP1 PUSH4 0x30CCEBB5 EQ PUSH2 0x67 JUMPI DUP1 PUSH4 0x4ABA9DFB EQ PUSH2 0x99 JUMPI DUP1 PUSH4 0x6898F82B EQ PUSH2 0xC9 JUMPI DUP1 PUSH4 0xA2724A4D EQ PUSH2 0xE5 JUMPI DUP1 PUSH4 0xA9AB257B EQ PUSH2 0x103 JUMPI DUP1 PUSH4 0xF50DDBC7 EQ PUSH2 0x133 JUMPI JUMPDEST PUSH1 0x0 DUP1 REVERT JUMPDEST PUSH2 0x81 PUSH1 0x4 DUP1 CALLDATASIZE SUB DUP2 ADD SWAP1 PUSH2 0x7C SWAP2 SWAP1 PUSH2 0x69B JUMP JUMPDEST PUSH2 0x163 JUMP JUMPDEST PUSH1 0x40 MLOAD PUSH2 0x90 SWAP4 SWAP3 SWAP2 SWAP1 PUSH2 0x6E1 JUMP JUMPDEST PUSH1 0x40 MLOAD DUP1 SWAP2 SUB SWAP1 RETURN JUMPDEST PUSH2 0xB3 PUSH1 0x4 DUP1 CALLDATASIZE SUB DUP2 ADD SWAP1 PUSH2 0xAE SWAP2 SWAP1 PUSH2 0x69B JUMP JUMPDEST PUSH2 0x246 JUMP JUMPDEST PUSH1 0x40 MLOAD PUSH2 0xC0 SWAP2 SWAP1 PUSH2 0x718 JUMP JUMPDEST PUSH1 0x40 MLOAD DUP1 SWAP2 SUB SWAP1 RETURN JUMPDEST PUSH2 0xE3 PUSH1 0x4 DUP1 CALLDATASIZE SUB DUP2 ADD SWAP1 PUSH2 0xDE SWAP2 SWAP1 PUSH2 0x75F JUMP JUMPDEST PUSH2 0x25E JUMP JUMPDEST STOP JUMPDEST PUSH2 0xED PUSH2 0x602 JUMP JUMPDEST PUSH1 0x40 MLOAD PUSH2 0xFA SWAP2 SWAP1 PUSH2 0x718 JUMP JUMPDEST PUSH1 0x40 MLOAD DUP1 SWAP2 SUB SWAP1 RETURN JUMPDEST PUSH2 0x11D PUSH1 0x4 DUP1 CALLDATASIZE SUB DUP2 ADD SWAP1 PUSH2 0x118 SWAP2 SWAP1 PUSH2 0x69B JUMP JUMPDEST PUSH2 0x608 JUMP JUMPDEST PUSH1 0x40 MLOAD PUSH2 0x12A SWAP2 SWAP1 PUSH2 0x718 JUMP JUMPDEST PUSH1 0x40 MLOAD DUP1 SWAP2 SUB SWAP1 RETURN JUMPDEST PUSH2 0x14D PUSH1 0x4 DUP1 CALLDATASIZE SUB DUP2 ADD SWAP1 PUSH2 0x148 SWAP2 SWAP1 PUSH2 0x69B JUMP JUMPDEST PUSH2 0x620 JUMP JUMPDEST PUSH1 0x40 MLOAD PUSH2 0x15A SWAP2 SWAP1 PUSH2 0x718 JUMP JUMPDEST PUSH1 0x40 MLOAD DUP1 SWAP2 SUB SWAP1 RETURN JUMPDEST PUSH1 0x0 DUP1 PUSH1 0x0 DUP1 PUSH2 0xE10 PUSH1 0x2 PUSH1 0x0 DUP8 PUSH20 0xFFFFFFFFFFFFFFFFFFFFFFFFFFFFFFFFFFFFFFFF AND PUSH20 0xFFFFFFFFFFFFFFFFFFFFFFFFFFFFFFFFFFFFFFFF AND DUP2 MSTORE PUSH1 0x20 ADD SWAP1 DUP2 MSTORE PUSH1 0x20 ADD PUSH1 0x0 KECCAK256 SLOAD PUSH2 0x1B6 SWAP2 SWAP1 PUSH2 0x7BB JUMP JUMPDEST SWAP1 POP PUSH1 0x0 DUP1 DUP7 PUSH20 0xFFFFFFFFFFFFFFFFFFFFFFFFFFFFFFFFFFFFFFFF AND PUSH20 0xFFFFFFFFFFFFFFFFFFFFFFFFFFFFFFFFFFFFFFFF AND DUP2 MSTORE PUSH1 0x20 ADD SWAP1 DUP2 MSTORE PUSH1 0x20 ADD PUSH1 0x0 KECCAK256 SLOAD PUSH1 0x1 PUSH1 0x0 DUP8 PUSH20 0xFFFFFFFFFFFFFFFFFFFFFFFFFFFFFFFFFFFFFFFF AND PUSH20 0xFFFFFFFFFFFFFFFFFFFFFFFFFFFFFFFFFFFFFFFF AND DUP2 MSTORE PUSH1 0x20 ADD SWAP1 DUP2 MSTORE PUSH1 0x20 ADD PUSH1 0x0 KECCAK256 SLOAD DUP3 SWAP4 POP SWAP4 POP SWAP4 POP POP SWAP2 SWAP4 SWAP1 SWAP3 POP JUMP JUMPDEST PUSH1 0x2 PUSH1 0x20 MSTORE DUP1 PUSH1 0x0 MSTORE PUSH1 0x40 PUSH1 0x0 KECCAK256 PUSH1 0x0 SWAP2 POP SWAP1 POP SLOAD DUP2 JUMP JUMPDEST PUSH1 0x1 DUP2 LT ISZERO DUP1 ISZERO PUSH2 0x270 JUMPI POP PUSH1 0x3 DUP2 GT ISZERO JUMPDEST PUSH2 0x2AF JUMPI PUSH1 0x40 MLOAD PUSH32 0x8C379A000000000000000000000000000000000000000000000000000000000 DUP2 MSTORE PUSH1 0x4 ADD PUSH2 0x2A6 SWAP1 PUSH2 0x84C JUMP JUMPDEST PUSH1 0x40 MLOAD DUP1 SWAP2 SUB SWAP1 REVERT JUMPDEST PUSH1 0x3 PUSH1 0x0 DUP1 CALLER PUSH20 0xFFFFFFFFFFFFFFFFFFFFFFFFFFFFFFFFFFFFFFFF AND PUSH20 0xFFFFFFFFFFFFFFFFFFFFFFFFFFFFFFFFFFFFFFFF AND DUP2 MSTORE PUSH1 0x20 ADD SWAP1 DUP2 MSTORE PUSH1 0x20 ADD PUSH1 0x0 KECCAK256 SLOAD LT ISZERO PUSH2 0x3D3 JUMPI PUSH2 0xE10 PUSH1 0x2 PUSH1 0x0 CALLER PUSH20 0xFFFFFFFFFFFFFFFFFFFFFFFFFFFFFFFFFFFFFFFF AND PUSH20 0xFFFFFFFFFFFFFFFFFFFFFFFFFFFFFFFFFFFFFFFF AND DUP2 MSTORE PUSH1 0x20 ADD SWAP1 DUP2 MSTORE PUSH1 0x20 ADD PUSH1 0x0 KECCAK256 SLOAD PUSH2 0x343 SWAP2 SWAP1 PUSH2 0x7BB JUMP JUMPDEST TIMESTAMP LT PUSH2 0x3D2 JUMPI PUSH1 0xA PUSH1 0x0 DUP1 CALLER PUSH20 0xFFFFFFFFFFFFFFFFFFFFFFFFFFFFFFFFFFFFFFFF AND PUSH20 0xFFFFFFFFFFFFFFFFFFFFFFFFFFFFFFFFFFFFFFFF AND DUP2 MSTORE PUSH1 0x20 ADD SWAP1 DUP2 MSTORE PUSH1 0x20 ADD PUSH1 0x0 KECCAK256 DUP2 SWAP1 SSTORE POP TIMESTAMP PUSH1 0x2 PUSH1 0x0 CALLER PUSH20 0xFFFFFFFFFFFFFFFFFFFFFFFFFFFFFFFFFFFFFFFF AND PUSH20 0xFFFFFFFFFFFFFFFFFFFFFFFFFFFFFFFFFFFFFFFF AND DUP2 MSTORE PUSH1 0x20 ADD SWAP1 DUP2 MSTORE PUSH1 0x20 ADD PUSH1 0x0 KECCAK256 DUP2 SWAP1 SSTORE POP JUMPDEST JUMPDEST PUSH1 0x3 PUSH1 0x0 DUP1 CALLER PUSH20 0xFFFFFFFFFFFFFFFFFFFFFFFFFFFFFFFFFFFFFFFF AND PUSH20 0xFFFFFFFFFFFFFFFFFFFFFFFFFFFFFFFFFFFFFFFF AND DUP2 MSTORE PUSH1 0x20 ADD SWAP1 DUP2 MSTORE PUSH1 0x20 ADD PUSH1 0x0 KECCAK256 SLOAD LT ISZERO PUSH2 0x455 JUMPI PUSH1 0x40 MLOAD PUSH32 0x8C379A000000000000000000000000000000000000000000000000000000000 DUP2 MSTORE PUSH1 0x4 ADD PUSH2 0x44C SWAP1 PUSH2 0x8B8 JUMP JUMPDEST PUSH1 0x40 MLOAD DUP1 SWAP2 SUB SWAP1 REVERT JUMPDEST PUSH1 0x3 PUSH1 0x0 DUP1 CALLER PUSH20 0xFFFFFFFFFFFFFFFFFFFFFFFFFFFFFFFFFFFFFFFF AND PUSH20 0xFFFFFFFFFFFFFFFFFFFFFFFFFFFFFFFFFFFFFFFF AND DUP2 MSTORE PUSH1 0x20 ADD SWAP1 DUP2 MSTORE PUSH1 0x20 ADD PUSH1 0x0 KECCAK256 PUSH1 0x0 DUP3 DUP3 SLOAD PUSH2 0x4A4 SWAP2 SWAP1 PUSH2 0x8D8 JUMP JUMPDEST SWAP3 POP POP DUP2 SWAP1 SSTORE POP PUSH1 0x0 PUSH1 0x1 PUSH1 0x3 TIMESTAMP CALLER PREVRANDAO PUSH1 0x40 MLOAD PUSH1 0x20 ADD PUSH2 0x4C6 SWAP4 SWAP3 SWAP2 SWAP1 PUSH2 0x975 JUMP JUMPDEST PUSH1 0x40 MLOAD PUSH1 0x20 DUP2 DUP4 SUB SUB DUP2 MSTORE SWAP1 PUSH1 0x40 MSTORE DUP1 MLOAD SWAP1 PUSH1 0x20 ADD KECCAK256 PUSH1 0x0 SHR PUSH2 0x4E9 SWAP2 SWAP1 PUSH2 0x9E1 JUMP JUMPDEST PUSH2 0x4F3 SWAP2 SWAP1 PUSH2 0x7BB JUMP JUMPDEST SWAP1 POP PUSH1 0x0 DUP2 DUP4 EQ SWAP1 POP PUSH1 0x0 DUP2 PUSH2 0x50A JUMPI PUSH1 0x1 PUSH2 0x50D JUMP JUMPDEST PUSH1 0x5 JUMPDEST PUSH1 0xFF AND SWAP1 POP DUP1 PUSH1 0x1 PUSH1 0x0 CALLER PUSH20 0xFFFFFFFFFFFFFFFFFFFFFFFFFFFFFFFFFFFFFFFF AND PUSH20 0xFFFFFFFFFFFFFFFFFFFFFFFFFFFFFFFFFFFFFFFF AND DUP2 MSTORE PUSH1 0x20 ADD SWAP1 DUP2 MSTORE PUSH1 0x20 ADD PUSH1 0x0 KECCAK256 PUSH1 0x0 DUP3 DUP3 SLOAD PUSH2 0x561 SWAP2 SWAP1 PUSH2 0x7BB JUMP JUMPDEST SWAP3 POP POP DUP2 SWAP1 SSTORE POP CALLER PUSH20 0xFFFFFFFFFFFFFFFFFFFFFFFFFFFFFFFFFFFFFFFF AND PUSH32 0xF8F101B2CC184B2676E6AA82D8B732D54684DF1634D209202A8C0ADFFB1AFA6F DUP6 DUP6 DUP6 DUP6 PUSH1 0x0 DUP1 CALLER PUSH20 0xFFFFFFFFFFFFFFFFFFFFFFFFFFFFFFFFFFFFFFFF AND PUSH20 0xFFFFFFFFFFFFFFFFFFFFFFFFFFFFFFFFFFFFFFFF AND DUP2 MSTORE PUSH1 0x20 ADD SWAP1 DUP2 MSTORE PUSH1 0x20 ADD PUSH1 0x0 KECCAK256 SLOAD PUSH1 0x40 MLOAD PUSH2 0x5F4 SWAP6 SWAP5 SWAP4 SWAP3 SWAP2 SWAP1 PUSH2 0xA2D JUMP JUMPDEST PUSH1 0x40 MLOAD DUP1 SWAP2 SUB SWAP1 LOG2 POP POP POP POP JUMP JUMPDEST PUSH2 0xE10 DUP2 JUMP JUMPDEST PUSH1 0x0 PUSH1 0x20 MSTORE DUP1 PUSH1 0x0 MSTORE PUSH1 0x40 PUSH1 0x0 KECCAK256 PUSH1 0x0 SWAP2 POP SWAP1 POP SLOAD DUP2 JUMP JUMPDEST PUSH1 0x1 PUSH1 0x20 MSTORE DUP1 PUSH1 0x0 MSTORE PUSH1 0x40 PUSH1 0x0 KECCAK256 PUSH1 0x0 SWAP2 POP SWAP1 POP SLOAD DUP2 JUMP JUMPDEST PUSH1 0x0 DUP1 REVERT JUMPDEST PUSH1 0x0 PUSH20 0xFFFFFFFFFFFFFFFFFFFFFFFFFFFFFFFFFFFFFFFF DUP3 AND SWAP1 POP SWAP2 SWAP1 POP JUMP JUMPDEST PUSH1 0x0 PUSH2 0x668 DUP3 PUSH2 0x63D JUMP JUMPDEST SWAP1 POP SWAP2 SWAP1 POP JUMP JUMPDEST PUSH2 0x678 DUP2 PUSH2 0x65D JUMP JUMPDEST DUP2 EQ PUSH2 0x683 JUMPI PUSH1 0x0 DUP1 REVERT JUMPDEST POP JUMP JUMPDEST PUSH1 0x0 DUP2 CALLDATALOAD SWAP1 POP PUSH2 0x695 DUP2 PUSH2 0x66F JUMP JUMPDEST SWAP3 SWAP2 POP POP JUMP JUMPDEST PUSH1 0x0 PUSH1 0x20 DUP3 DUP5 SUB SLT ISZERO PUSH2 0x6B1 JUMPI PUSH2 0x6B0 PUSH2 0x638 JUMP JUMPDEST JUMPDEST PUSH1 0x0 PUSH2 0x6BF DUP5 DUP3 DUP6 ADD PUSH2 0x686 JUMP JUMPDEST SWAP2 POP POP SWAP3 SWAP2 POP POP JUMP JUMPDEST PUSH1 0x0 DUP2 SWAP1 POP SWAP2 SWAP1 POP JUMP JUMPDEST PUSH2 0x6DB DUP2 PUSH2 0x6C8 JUMP JUMPDEST DUP3 MSTORE POP POP JUMP JUMPDEST PUSH1 0x0 PUSH1 0x60 DUP3 ADD SWAP1 POP PUSH2 0x6F6 PUSH1 0x0 DUP4 ADD DUP7 PUSH2 0x6D2 JUMP JUMPDEST PUSH2 0x703 PUSH1 0x20 DUP4 ADD DUP6 PUSH2 0x6D2 JUMP JUMPDEST PUSH2 0x710 PUSH1 0x40 DUP4 ADD DUP5 PUSH2 0x6D2 JUMP JUMPDEST SWAP5 SWAP4 POP POP POP POP JUMP JUMPDEST PUSH1 0x0 PUSH1 0x20 DUP3 ADD SWAP1 POP PUSH2 0x72D PUSH1 0x0 DUP4 ADD DUP5 PUSH2 0x6D2 JUMP JUMPDEST SWAP3 SWAP2 POP POP JUMP JUMPDEST PUSH2 0x73C DUP2 PUSH2 0x6C8 JUMP JUMPDEST DUP2 EQ PUSH2 0x747 JUMPI PUSH1 0x0 DUP1 REVERT JUMPDEST POP JUMP JUMPDEST PUSH1 0x0 DUP2 CALLDATALOAD SWAP1 POP PUSH2 0x759 DUP2 PUSH2 0x733 JUMP JUMPDEST SWAP3 SWAP2 POP POP JUMP JUMPDEST PUSH1 0x0 PUSH1 0x20 DUP3 DUP5 SUB SLT ISZERO PUSH2 0x775 JUMPI PUSH2 0x774 PUSH2 0x638 JUMP JUMPDEST JUMPDEST PUSH1 0x0 PUSH2 0x783 DUP5 DUP3 DUP6 ADD PUSH2 0x74A JUMP JUMPDEST SWAP2 POP POP SWAP3 SWAP2 POP POP JUMP JUMPDEST PUSH32 0x4E487B7100000000000000000000000000000000000000000000000000000000 PUSH1 0x0 MSTORE PUSH1 0x11 PUSH1 0x4 MSTORE PUSH1 0x24 PUSH1 0x0 REVERT JUMPDEST PUSH1 0x0 PUSH2 0x7C6 DUP3 PUSH2 0x6C8 JUMP JUMPDEST SWAP2 POP PUSH2 0x7D1 DUP4 PUSH2 0x6C8 JUMP JUMPDEST SWAP3 POP DUP3 DUP3 ADD SWAP1 POP DUP1 DUP3 GT ISZERO PUSH2 0x7E9 JUMPI PUSH2 0x7E8 PUSH2 0x78C JUMP JUMPDEST JUMPDEST SWAP3 SWAP2 POP POP JUMP JUMPDEST PUSH1 0x0 DUP3 DUP3 MSTORE PUSH1 0x20 DUP3 ADD SWAP1 POP SWAP3 SWAP2 POP POP JUMP JUMPDEST PUSH32 0x4775657373206D75737420626520312D33000000000000000000000000000000 PUSH1 0x0 DUP3 ADD MSTORE POP JUMP JUMPDEST PUSH1 0x0 PUSH2 0x836 PUSH1 0x11 DUP4 PUSH2 0x7EF JUMP JUMPDEST SWAP2 POP PUSH2 0x841 DUP3 PUSH2 0x800 JUMP JUMPDEST PUSH1 0x20 DUP3 ADD SWAP1 POP SWAP2 SWAP1 POP JUMP JUMPDEST PUSH1 0x0 PUSH1 0x20 DUP3 ADD SWAP1 POP DUP2 DUP2 SUB PUSH1 0x0 DUP4 ADD MSTORE PUSH2 0x865 DUP2 PUSH2 0x829 JUMP JUMPDEST SWAP1 POP SWAP2 SWAP1 POP JUMP JUMPDEST PUSH32 0x496E73756666696369656E742047616D65436F696E0000000000000000000000 PUSH1 0x0 DUP3 ADD MSTORE POP JUMP JUMPDEST PUSH1 0x0 PUSH2 0x8A2 PUSH1 0x15 DUP4 PUSH2 0x7EF JUMP JUMPDEST SWAP2 POP PUSH2 0x8AD DUP3 PUSH2 0x86C JUMP JUMPDEST PUSH1 0x20 DUP3 ADD SWAP1 POP SWAP2 SWAP1 POP JUMP JUMPDEST PUSH1 0x0 PUSH1 0x20 DUP3 ADD SWAP1 POP DUP2 DUP2 SUB PUSH1 0x0 DUP4 ADD MSTORE PUSH2 0x8D1 DUP2 PUSH2 0x895 JUMP JUMPDEST SWAP1 POP SWAP2 SWAP1 POP JUMP JUMPDEST PUSH1 0x0 PUSH2 0x8E3 DUP3 PUSH2 0x6C8 JUMP JUMPDEST SWAP2 POP PUSH2 0x8EE DUP4 PUSH2 0x6C8 JUMP JUMPDEST SWAP3 POP DUP3 DUP3 SUB SWAP1 POP DUP2 DUP2 GT ISZERO PUSH2 0x906 JUMPI PUSH2 0x905 PUSH2 0x78C JUMP JUMPDEST JUMPDEST SWAP3 SWAP2 POP POP JUMP JUMPDEST PUSH1 0x0 DUP2 SWAP1 POP SWAP2 SWAP1 POP JUMP JUMPDEST PUSH2 0x927 PUSH2 0x922 DUP3 PUSH2 0x6C8 JUMP JUMPDEST PUSH2 0x90C JUMP JUMPDEST DUP3 MSTORE POP POP JUMP JUMPDEST PUSH1 0x0 DUP2 PUSH1 0x60 SHL SWAP1 POP SWAP2 SWAP1 POP JUMP JUMPDEST PUSH1 0x0 PUSH2 0x945 DUP3 PUSH2 0x92D JUMP JUMPDEST SWAP1 POP SWAP2 SWAP1 POP JUMP JUMPDEST PUSH1 0x0 PUSH2 0x957 DUP3 PUSH2 0x93A JUMP JUMPDEST SWAP1 POP SWAP2 SWAP1 POP JUMP JUMPDEST PUSH2 0x96F PUSH2 0x96A DUP3 PUSH2 0x65D JUMP JUMPDEST PUSH2 0x94C JUMP JUMPDEST DUP3 MSTORE POP POP JUMP JUMPDEST PUSH1 0x0 PUSH2 0x981 DUP3 DUP7 PUSH2 0x916 JUMP JUMPDEST PUSH1 0x20 DUP3 ADD SWAP2 POP PUSH2 0x991 DUP3 DUP6 PUSH2 0x95E JUMP JUMPDEST PUSH1 0x14 DUP3 ADD SWAP2 POP PUSH2 0x9A1 DUP3 DUP5 PUSH2 0x916 JUMP JUMPDEST PUSH1 0x20 DUP3 ADD SWAP2 POP DUP2 SWAP1 POP SWAP5 SWAP4 POP POP POP POP JUMP JUMPDEST PUSH32 0x4E487B7100000000000000000000000000000000000000000000000000000000 PUSH1 0x0 MSTORE PUSH1 0x12 PUSH1 0x4 MSTORE PUSH1 0x24 PUSH1 0x0 REVERT JUMPDEST PUSH1 0x0 PUSH2 0x9EC DUP3 PUSH2 0x6C8 JUMP JUMPDEST SWAP2 POP PUSH2 0x9F7 DUP4 PUSH2 0x6C8 JUMP JUMPDEST SWAP3 POP DUP3 PUSH2 0xA07 JUMPI PUSH2 0xA06 PUSH2 0x9B2 JUMP JUMPDEST JUMPDEST DUP3 DUP3 MOD SWAP1 POP SWAP3 SWAP2 POP POP JUMP JUMPDEST PUSH1 0x0 DUP2 ISZERO ISZERO SWAP1 POP SWAP2 SWAP1 POP JUMP JUMPDEST PUSH2 0xA27 DUP2 PUSH2 0xA12 JUMP JUMPDEST DUP3 MSTORE POP POP JUMP JUMPDEST PUSH1 0x0 PUSH1 0xA0 DUP3 ADD SWAP1 POP PUSH2 0xA42 PUSH1 0x0 DUP4 ADD DUP9 PUSH2 0x6D2 JUMP JUMPDEST PUSH2 0xA4F PUSH1 0x20 DUP4 ADD DUP8 PUSH2 0x6D2 JUMP JUMPDEST PUSH2 0xA5C PUSH1 0x40 DUP4 ADD DUP7 PUSH2 0xA1E JUMP JUMPDEST PUSH2 0xA69 PUSH1 0x60 DUP4 ADD DUP6 PUSH2 0x6D2 JUMP JUMPDEST PUSH2 0xA76 PUSH1 0x80 DUP4 ADD DUP5 PUSH2 0x6D2 JUMP JUMPDEST SWAP7 SWAP6 POP POP POP POP POP POP JUMP INVALID LOG2 PUSH5 0x6970667358 0x22 SLT KECCAK256 COINBASE 0x29 SWAP11 0xF8 PUSH24 0x401F00410CFA29483E2345C77DF588D2E4A415E118033A7E SWAP9 EQ 0xBA PUSH5 0x736F6C6343 STOP ADDMOD XOR STOP CALLER "},"methodIdentifiers":{"COOLDOWN()":"a2724a4d","gameCoinBalance(address)":"a9ab257b","getStatus(address)":"30ccebb5","lastRefillTime(address)":"4aba9dfb","play(uint256)":"6898f82b","userPoints(address)":"f50ddbc7"}}}}}