{
  "_format": "hh-sol-artifact-1",
  "contractName": "LuckyNumber",
  "sourceName": "contracts/LuckyNumber.sol",
  "abi": [
    {
      "anonymous": false,
      "inputs": [
        {
          "indexed": true,
          "internalType": "address",
          "name": "player",
          "type": "address"
        },
        {
          "indexed": false,
          "internalType": "uint256",
          "name": "guess",
          "type": "uint256"
        },
        {
          "indexed": false,
          "internalType": "uint256",
          "name": "luckyNumber",
          "type": "uint256"
        },
        {
          "indexed": false,
          "internalType": "bool",
          "name": "won",
          "type": "bool"
        },
        {
          "indexed": false,
          "internalType": "uint256",
          "name": "pointsEarned",
          "type": "uint256"
        },
        {
          "indexed": false,
          "internalType": "uint256",
          "name": "newBalance",
          "type": "uint256"
        }
      ],
      "name": "Played",
      "type": "event"
    },
    {
      "inputs": [],
      "name": "COOLDOWN",
      "outputs": [
        {
          "internalType": "uint256",
          "name": "",
          "type": "uint256"
        }
      ],
      "stateMutability": "view",
      "type": "function"
    },
    {
      "inputs": [
        {
          "internalType": "address",
          "name": "",
          "type": "address"
        }
      ],
      "name": "gameCoinBalance",
      "outputs": [
        {
          "internalType": "uint256",
          "name": "",
          "type": "uint256"
        }
      ],
      "stateMutability": "view",
      "type": "function"
    },
    {
      "inputs": [
        {
          "internalType": "address",
          "name": "player",
          "type": "address"
        }
      ],
      "name": "getStatus",
      "outputs": [
        {
          "internalType": "uint256",
          "name": "coin",
          "type": "uint256"
        },
        {
          "internalType": "uint256",
          "name": "points",
          "type": "uint256"
        },
        {
          "internalType": "uint256",
          "name": "nextRefillTime",
          "type": "uint256"
        }
      ],
      "stateMutability": "view",
      "type": "function"
    },
    {
      "inputs": [
        {
          "internalType": "address",
          "name": "",
          "type": "address"
        }
      ],
      "name": "lastRefillTime",
      "outputs": [
        {
          "internalType": "uint256",
          "name": "",
          "type": "uint256"
        }
      ],
      "stateMutability": "view",
      "type": "function"
    },
    {
      "inputs": [
        {
          "internalType": "uint256",
          "name": "guess",
          "type": "uint256"
        }
      ],
      "name": "play",
      "outputs": [],
      "stateMutability": "nonpayable",
      "type": "function"
    },
    {
      "inputs": [
        {
          "internalType": "address",
          "name": "",
          "type": "address"
        }
      ],
      "name": "userPoints",
      "outputs": [
        {
          "internalType": "uint256",
          "name": "",
          "type": "uint256"
        }
      ],
      "stateMutability": "view",
      "type": "function"
    }
  ],
  "bytecode": "0x608060405234801561001057600080fd5b50610ab6806100206000396000f3fe608060405234801561001057600080fd5b50600436106100625760003560e01c806330ccebb5146100675780634aba9dfb146100995780636898f82b146100c9578063a2724a4d146100e5578063a9ab257b14610103578063f50ddbc714610133575b600080fd5b610081600480360381019061007c919061069b565b610163565b604051610090939291906106e1565b60405180910390f35b6100b360048036038101906100ae919061069b565b610246565b6040516100c09190610718565b60405180910390f35b6100e360048036038101906100de919061075f565b61025e565b005b6100ed610602565b6040516100fa9190610718565b60405180910390f35b61011d6004803603810190610118919061069b565b610608565b60405161012a9190610718565b60405180910390f35b61014d6004803603810190610148919061069b565b610620565b60405161015a9190610718565b60405180910390f35b600080600080610e10600260008773ffffffffffffffffffffffffffffffffffffffff1673ffffffffffffffffffffffffffffffffffffffff168152602001908152602001600020546101b691906107bb565b90506000808673ffffffffffffffffffffffffffffffffffffffff1673ffffffffffffffffffffffffffffffffffffffff16815260200190815260200160002054600160008773ffffffffffffffffffffffffffffffffffffffff1673ffffffffffffffffffffffffffffffffffffffff1681526020019081526020016000205482935093509350509193909250565b60026020528060005260406000206000915090505481565b60018110158015610270575060038111155b6102af576040517f08c379a00000000000000000000000000000000000000000000000000000000081526004016102a69061084c565b60405180910390fd5b60036000803373ffffffffffffffffffffffffffffffffffffffff1673ffffffffffffffffffffffffffffffffffffffff1681526020019081526020016000205410156103d357610e10600260003373ffffffffffffffffffffffffffffffffffffffff1673ffffffffffffffffffffffffffffffffffffffff1681526020019081526020016000205461034391906107bb565b42106103d257600a6000803373ffffffffffffffffffffffffffffffffffffffff1673ffffffffffffffffffffffffffffffffffffffff1681526020019081526020016000208190555042600260003373ffffffffffffffffffffffffffffffffffffffff1673ffffffffffffffffffffffffffffffffffffffff168152602001908152602001600020819055505b5b60036000803373ffffffffffffffffffffffffffffffffffffffff1673ffffffffffffffffffffffffffffffffffffffff168152602001908152602001600020541015610455576040517f08c379a000000000000000000000000000000000000000000000000000000000815260040161044c906108b8565b60405180910390fd5b60036000803373ffffffffffffffffffffffffffffffffffffffff1673ffffffffffffffffffffffffffffffffffffffff16815260200190815260200160002060008282546104a491906108d8565b925050819055506000600160034233446040516020016104c693929190610975565b6040516020818303038152906040528051906020012060001c6104e991906109e1565b6104f391906107bb565b90506000818314905060008161050a57600161050d565b60055b60ff16905080600160003373ffffffffffffffffffffffffffffffffffffffff1673ffffffffffffffffffffffffffffffffffffffff168152602001908152602001600020600082825461056191906107bb565b925050819055503373ffffffffffffffffffffffffffffffffffffffff167ff8f101b2cc184b2676e6aa82d8b732d54684df1634d209202a8c0adffb1afa6f858585856000803373ffffffffffffffffffffffffffffffffffffffff1673ffffffffffffffffffffffffffffffffffffffff168152602001908152602001600020546040516105f4959493929190610a2d565b60405180910390a250505050565b610e1081565b60006020528060005260406000206000915090505481565b60016020528060005260406000206000915090505481565b600080fd5b600073ffffffffffffffffffffffffffffffffffffffff82169050919050565b60006106688261063d565b9050919050565b6106788161065d565b811461068357600080fd5b50565b6000813590506106958161066f565b92915050565b6000602082840312156106b1576106b0610638565b5b60006106bf84828501610686565b91505092915050565b6000819050919050565b6106db816106c8565b82525050565b60006060820190506106f660008301866106d2565b61070360208301856106d2565b61071060408301846106d2565b949350505050565b600060208201905061072d60008301846106d2565b92915050565b61073c816106c8565b811461074757600080fd5b50565b60008135905061075981610733565b92915050565b60006020828403121561077557610774610638565b5b60006107838482850161074a565b91505092915050565b7f4e487b7100000000000000000000000000000000000000000000000000000000600052601160045260246000fd5b60006107c6826106c8565b91506107d1836106c8565b92508282019050808211156107e9576107e861078c565b5b92915050565b600082825260208201905092915050565b7f4775657373206d75737420626520312d33000000000000000000000000000000600082015250565b60006108366011836107ef565b915061084182610800565b602082019050919050565b6000602082019050818103600083015261086581610829565b9050919050565b7f496e73756666696369656e742047616d65436f696e0000000000000000000000600082015250565b60006108a26015836107ef565b91506108ad8261086c565b602082019050919050565b600060208201905081810360008301526108d181610895565b9050919050565b60006108e3826106c8565b91506108ee836106c8565b92508282039050818111156109065761090561078c565b5b92915050565b6000819050919050565b610927610922826106c8565b61090c565b82525050565b60008160601b9050919050565b60006109458261092d565b9050919050565b60006109578261093a565b9050919050565b61096f61096a8261065d565b61094c565b82525050565b60006109818286610916565b602082019150610991828561095e565b6014820191506109a18284610916565b602082019150819050949350505050565b7f4e487b7100000000000000000000000000000000000000000000000000000000600052601260045260246000fd5b60006109ec826106c8565b91506109f7836106c8565b925082610a0757610a066109b2565b5b828206905092915050565b60008115159050919050565b610a2781610a12565b82525050565b600060a082019050610a4260008301886106d2565b610a4f60208301876106d2565b610a5c6040830186610a1e565b610a6960608301856106d2565b610a7660808301846106d2565b969550505050505056fea264697066735822122041299af877401f00410cfa29483e2345c77df588d2e4a415e118033a7e9814ba64736f6c63430008180033",
  "linkReferences": {},
  "deployedLinkReferences": {}
}